{
  "_format": "hh-sol-artifact-1",
  "contractName": "Events",
  "sourceName": "src/backend/contracts/Event.sol",
  "abi": [
    {
      "inputs": [],
      "stateMutability": "nonpayable",
      "type": "constructor"
    },
    {
      "anonymous": false,
      "inputs": [
        {
          "indexed": false,
          "internalType": "string",
          "name": "_eventDetails",
          "type": "string"
        },
        {
          "indexed": false,
          "internalType": "uint256",
          "name": "_ticketCount",
          "type": "uint256"
        },
        {
          "indexed": false,
          "internalType": "uint256",
          "name": "_ticketsSold",
          "type": "uint256"
        },
        {
          "indexed": true,
          "internalType": "address",
          "name": "_hostName",
          "type": "address"
        },
        {
          "indexed": true,
          "internalType": "address",
          "name": "_eventOrganiser",
          "type": "address"
        }
      ],
      "name": "created",
      "type": "event"
    },
    {
      "inputs": [
        {
          "internalType": "string",
          "name": "_eventDetails",
          "type": "string"
        },
        {
          "internalType": "uint256",
          "name": "_ticketCount",
          "type": "uint256"
        },
        {
          "internalType": "uint256",
          "name": "_ticketsSold",
          "type": "uint256"
        },
        {
          "internalType": "address payable",
          "name": "_hostName",
          "type": "address"
        },
        {
          "internalType": "uint256",
          "name": "_ticketPrice",
          "type": "uint256"
        }
      ],
      "name": "createEvent",
      "outputs": [
        {
          "internalType": "uint256",
          "name": "",
          "type": "uint256"
        }
      ],
      "stateMutability": "nonpayable",
      "type": "function"
    }
  ],
  "bytecode": "0x60a060405234801561001057600080fd5b5060016000819055503373ffffffffffffffffffffffffffffffffffffffff1660808173ffffffffffffffffffffffffffffffffffffffff1660601b8152505060805160601c61079c61006b6000396000505061079c6000f3fe608060405234801561001057600080fd5b506004361061002b5760003560e01c80634eecf71114610030575b600080fd5b61004a600480360381019061004591906103da565b610060565b6040516100579190610532565b60405180910390f35b6000600260005414156100a8576040517f08c379a000000000000000000000000000000000000000000000000000000000815260040161009f90610512565b60405180910390fd5b60026000819055506100ba6001610281565b6040518060c001604052808781526020018681526020018581526020018473ffffffffffffffffffffffffffffffffffffffff1681526020013373ffffffffffffffffffffffffffffffffffffffff16815260200183815250600260006101216001610297565b8152602001908152602001600020600082015181600001908051906020019061014b9291906102a5565b50602082015181600101556040820151816002015560608201518160030160006101000a81548173ffffffffffffffffffffffffffffffffffffffff021916908373ffffffffffffffffffffffffffffffffffffffff16021790555060808201518160040160006101000a81548173ffffffffffffffffffffffffffffffffffffffff021916908373ffffffffffffffffffffffffffffffffffffffff16021790555060a082015181600501559050503373ffffffffffffffffffffffffffffffffffffffff168373ffffffffffffffffffffffffffffffffffffffff167f3daae0c3c532827578f0da8fa92c3d5513955f0518b0076dc55d89b47a3b3d5188888860405161025c939291906104d4565b60405180910390a361026e6001610297565b9050600160008190555095945050505050565b6001816000016000828254019250508190555050565b600081600001549050919050565b8280546102b19061063d565b90600052602060002090601f0160209004810192826102d3576000855561031a565b82601f106102ec57805160ff191683800117855561031a565b8280016001018555821561031a579182015b828111156103195782518255916020019190600101906102fe565b5b509050610327919061032b565b5090565b5b8082111561034457600081600090555060010161032c565b5090565b600061035b61035684610572565b61054d565b90508281526020810184848401111561037357600080fd5b61037e8482856105fb565b509392505050565b60008135905061039581610738565b92915050565b600082601f8301126103ac57600080fd5b81356103bc848260208601610348565b91505092915050565b6000813590506103d48161074f565b92915050565b600080600080600060a086880312156103f257600080fd5b600086013567ffffffffffffffff81111561040c57600080fd5b6104188882890161039b565b9550506020610429888289016103c5565b945050604061043a888289016103c5565b935050606061044b88828901610386565b925050608061045c888289016103c5565b9150509295509295909350565b6000610474826105a3565b61047e81856105ae565b935061048e81856020860161060a565b610497816106fe565b840191505092915050565b60006104af601f836105ae565b91506104ba8261070f565b602082019050919050565b6104ce816105f1565b82525050565b600060608201905081810360008301526104ee8186610469565b90506104fd60208301856104c5565b61050a60408301846104c5565b949350505050565b6000602082019050818103600083015261052b816104a2565b9050919050565b600060208201905061054760008301846104c5565b92915050565b6000610557610568565b9050610563828261066f565b919050565b6000604051905090565b600067ffffffffffffffff82111561058d5761058c6106cf565b5b610596826106fe565b9050602081019050919050565b600081519050919050565b600082825260208201905092915050565b60006105ca826105d1565b9050919050565b600073ffffffffffffffffffffffffffffffffffffffff82169050919050565b6000819050919050565b82818337600083830152505050565b60005b8381101561062857808201518184015260208101905061060d565b83811115610637576000848401525b50505050565b6000600282049050600182168061065557607f821691505b60208210811415610669576106686106a0565b5b50919050565b610678826106fe565b810181811067ffffffffffffffff82111715610697576106966106cf565b5b80604052505050565b7f4e487b7100000000000000000000000000000000000000000000000000000000600052602260045260246000fd5b7f4e487b7100000000000000000000000000000000000000000000000000000000600052604160045260246000fd5b6000601f19601f8301169050919050565b7f5265656e7472616e637947756172643a207265656e7472616e742063616c6c00600082015250565b610741816105bf565b811461074c57600080fd5b50565b610758816105f1565b811461076357600080fd5b5056fea264697066735822122063333d1fdf0b0fd3ae096e020c1e483b5e149943e7494adcb166e96f36e2ed3764736f6c63430008040033",
  "linkReferences": {},
  "deployedLinkReferences": {}
}