{
  "_format": "hh-sol-artifact-1",
  "contractName": "Events",
  "sourceName": "src/backend/contracts/Event.sol",
  "abi": [
    {
      "inputs": [],
      "stateMutability": "nonpayable",
      "type": "constructor"
    },
    {
      "anonymous": false,
      "inputs": [
        {
          "indexed": false,
          "internalType": "string",
          "name": "_eventDetails",
          "type": "string"
        },
        {
          "indexed": false,
          "internalType": "uint256",
          "name": "_ticketCount",
          "type": "uint256"
        },
        {
          "indexed": false,
          "internalType": "uint256",
          "name": "_ticketsSold",
          "type": "uint256"
        },
        {
          "indexed": true,
          "internalType": "address",
          "name": "_hostName",
          "type": "address"
        },
        {
          "indexed": true,
          "internalType": "address",
          "name": "_eventOrganiser",
          "type": "address"
        }
      ],
      "name": "created",
      "type": "event"
    },
    {
      "inputs": [
        {
          "internalType": "string",
          "name": "_eventDetails",
          "type": "string"
        },
        {
          "internalType": "uint256",
          "name": "_ticketCount",
          "type": "uint256"
        },
        {
          "internalType": "uint256",
          "name": "_ticketsSold",
          "type": "uint256"
        },
        {
          "internalType": "address payable",
          "name": "_hostName",
          "type": "address"
        }
      ],
      "name": "createEvent",
      "outputs": [
        {
          "internalType": "uint256",
          "name": "",
          "type": "uint256"
        }
      ],
      "stateMutability": "nonpayable",
      "type": "function"
    }
  ],
  "bytecode": "0x60a060405234801561001057600080fd5b5060016000819055503373ffffffffffffffffffffffffffffffffffffffff1660808173ffffffffffffffffffffffffffffffffffffffff1660601b8152505060805160601c61077761006b600039600050506107776000f3fe608060405234801561001057600080fd5b506004361061002b5760003560e01c8063475375b514610030575b600080fd5b61004a600480360381019061004591906103c9565b610060565b604051610057919061050d565b60405180910390f35b6000600260005414156100a8576040517f08c379a000000000000000000000000000000000000000000000000000000000815260040161009f906104ed565b60405180910390fd5b60026000819055506100ba6001610270565b6040518060a001604052808681526020018581526020018481526020018373ffffffffffffffffffffffffffffffffffffffff1681526020013373ffffffffffffffffffffffffffffffffffffffff168152506002600061011b6001610286565b81526020019081526020016000206000820151816000019080519060200190610145929190610294565b50602082015181600101556040820151816002015560608201518160030160006101000a81548173ffffffffffffffffffffffffffffffffffffffff021916908373ffffffffffffffffffffffffffffffffffffffff16021790555060808201518160040160006101000a81548173ffffffffffffffffffffffffffffffffffffffff021916908373ffffffffffffffffffffffffffffffffffffffff1602179055509050503373ffffffffffffffffffffffffffffffffffffffff168273ffffffffffffffffffffffffffffffffffffffff167f3daae0c3c532827578f0da8fa92c3d5513955f0518b0076dc55d89b47a3b3d5187878760405161024c939291906104af565b60405180910390a361025e6001610286565b90506001600081905550949350505050565b6001816000016000828254019250508190555050565b600081600001549050919050565b8280546102a090610618565b90600052602060002090601f0160209004810192826102c25760008555610309565b82601f106102db57805160ff1916838001178555610309565b82800160010185558215610309579182015b828111156103085782518255916020019190600101906102ed565b5b509050610316919061031a565b5090565b5b8082111561033357600081600090555060010161031b565b5090565b600061034a6103458461054d565b610528565b90508281526020810184848401111561036257600080fd5b61036d8482856105d6565b509392505050565b60008135905061038481610713565b92915050565b600082601f83011261039b57600080fd5b81356103ab848260208601610337565b91505092915050565b6000813590506103c38161072a565b92915050565b600080600080608085870312156103df57600080fd5b600085013567ffffffffffffffff8111156103f957600080fd5b6104058782880161038a565b9450506020610416878288016103b4565b9350506040610427878288016103b4565b925050606061043887828801610375565b91505092959194509250565b600061044f8261057e565b6104598185610589565b93506104698185602086016105e5565b610472816106d9565b840191505092915050565b600061048a601f83610589565b9150610495826106ea565b602082019050919050565b6104a9816105cc565b82525050565b600060608201905081810360008301526104c98186610444565b90506104d860208301856104a0565b6104e560408301846104a0565b949350505050565b600060208201905081810360008301526105068161047d565b9050919050565b600060208201905061052260008301846104a0565b92915050565b6000610532610543565b905061053e828261064a565b919050565b6000604051905090565b600067ffffffffffffffff821115610568576105676106aa565b5b610571826106d9565b9050602081019050919050565b600081519050919050565b600082825260208201905092915050565b60006105a5826105ac565b9050919050565b600073ffffffffffffffffffffffffffffffffffffffff82169050919050565b6000819050919050565b82818337600083830152505050565b60005b838110156106035780820151818401526020810190506105e8565b83811115610612576000848401525b50505050565b6000600282049050600182168061063057607f821691505b602082108114156106445761064361067b565b5b50919050565b610653826106d9565b810181811067ffffffffffffffff82111715610672576106716106aa565b5b80604052505050565b7f4e487b7100000000000000000000000000000000000000000000000000000000600052602260045260246000fd5b7f4e487b7100000000000000000000000000000000000000000000000000000000600052604160045260246000fd5b6000601f19601f8301169050919050565b7f5265656e7472616e637947756172643a207265656e7472616e742063616c6c00600082015250565b61071c8161059a565b811461072757600080fd5b50565b610733816105cc565b811461073e57600080fd5b5056fea2646970667358221220191dfab05cf486b49d8bcb37a124b50b45b0a20d6cb65756f554fdffd801234864736f6c63430008040033",
  "linkReferences": {},
  "deployedLinkReferences": {}
}