{
  "_format": "hh-sol-artifact-1",
  "contractName": "Events",
  "sourceName": "src/backend/contracts/Event.sol",
  "abi": [
    {
      "inputs": [],
      "stateMutability": "nonpayable",
      "type": "constructor"
    },
    {
      "anonymous": false,
      "inputs": [
        {
          "indexed": false,
          "internalType": "string",
          "name": "_eventDetails",
          "type": "string"
        },
        {
          "indexed": false,
          "internalType": "uint256",
          "name": "_ticketCount",
          "type": "uint256"
        },
        {
          "indexed": false,
          "internalType": "uint256",
          "name": "_ticketsSold",
          "type": "uint256"
        },
        {
          "indexed": true,
          "internalType": "address",
          "name": "_hostName",
          "type": "address"
        },
        {
          "indexed": true,
          "internalType": "address",
          "name": "_eventOrganiser",
          "type": "address"
        }
      ],
      "name": "created",
      "type": "event"
    },
    {
      "inputs": [
        {
          "internalType": "string",
          "name": "_eventDetails",
          "type": "string"
        },
        {
          "internalType": "uint256",
          "name": "_ticketCount",
          "type": "uint256"
        },
        {
          "internalType": "uint256",
          "name": "_ticketsSold",
          "type": "uint256"
        },
        {
          "internalType": "address payable",
          "name": "_hostName",
          "type": "address"
        },
        {
          "internalType": "uint256",
          "name": "_ticketPrice",
          "type": "uint256"
        }
      ],
      "name": "createEvent",
      "outputs": [
        {
          "internalType": "uint256",
          "name": "",
          "type": "uint256"
        }
      ],
      "stateMutability": "nonpayable",
      "type": "function"
    },
    {
      "inputs": [],
      "name": "currentEventCount",
      "outputs": [
        {
          "internalType": "uint256",
          "name": "",
          "type": "uint256"
        }
      ],
      "stateMutability": "view",
      "type": "function"
    },
    {
      "inputs": [
        {
          "internalType": "uint256",
          "name": "",
          "type": "uint256"
        }
      ],
      "name": "events",
      "outputs": [
        {
          "internalType": "string",
          "name": "_eventDetails",
          "type": "string"
        },
        {
          "internalType": "uint256",
          "name": "_ticketCount",
          "type": "uint256"
        },
        {
          "internalType": "uint256",
          "name": "_ticketsSold",
          "type": "uint256"
        },
        {
          "internalType": "address payable",
          "name": "hostName",
          "type": "address"
        },
        {
          "internalType": "address payable",
          "name": "eventOrganiser",
          "type": "address"
        },
        {
          "internalType": "uint256",
          "name": "_ticketPrice",
          "type": "uint256"
        }
      ],
      "stateMutability": "view",
      "type": "function"
    }
  ],
  "bytecode": "0x60a060405234801561001057600080fd5b5060016000819055503373ffffffffffffffffffffffffffffffffffffffff1660808173ffffffffffffffffffffffffffffffffffffffff1660601b8152505060805160601c6109ba61006b600039600050506109ba6000f3fe608060405234801561001057600080fd5b50600436106100415760003560e01c806302ed3fc8146100465780630b791430146100645780634eecf71114610099575b600080fd5b61004e6100c9565b60405161005b9190610750565b60405180910390f35b61007e600480360381019061007991906105e7565b6100da565b604051610090969594939291906106c8565b60405180910390f35b6100b360048036038101906100ae9190610558565b6101de565b6040516100c09190610750565b60405180910390f35b60006100d560016103ff565b905090565b60026020528060005260406000206000915090508060000180546100fd9061085b565b80601f01602080910402602001604051908101604052809291908181526020018280546101299061085b565b80156101765780601f1061014b57610100808354040283529160200191610176565b820191906000526020600020905b81548152906001019060200180831161015957829003601f168201915b5050505050908060010154908060020154908060030160009054906101000a900473ffffffffffffffffffffffffffffffffffffffff16908060040160009054906101000a900473ffffffffffffffffffffffffffffffffffffffff16908060050154905086565b600060026000541415610226576040517f08c379a000000000000000000000000000000000000000000000000000000000815260040161021d90610730565b60405180910390fd5b6002600081905550610238600161040d565b6040518060c001604052808781526020018681526020018581526020018473ffffffffffffffffffffffffffffffffffffffff1681526020013373ffffffffffffffffffffffffffffffffffffffff168152602001838152506002600061029f60016103ff565b815260200190815260200160002060008201518160000190805190602001906102c9929190610423565b50602082015181600101556040820151816002015560608201518160030160006101000a81548173ffffffffffffffffffffffffffffffffffffffff021916908373ffffffffffffffffffffffffffffffffffffffff16021790555060808201518160040160006101000a81548173ffffffffffffffffffffffffffffffffffffffff021916908373ffffffffffffffffffffffffffffffffffffffff16021790555060a082015181600501559050503373ffffffffffffffffffffffffffffffffffffffff168373ffffffffffffffffffffffffffffffffffffffff167f3daae0c3c532827578f0da8fa92c3d5513955f0518b0076dc55d89b47a3b3d518888886040516103da9392919061068a565b60405180910390a36103ec60016103ff565b9050600160008190555095945050505050565b600081600001549050919050565b6001816000016000828254019250508190555050565b82805461042f9061085b565b90600052602060002090601f0160209004810192826104515760008555610498565b82601f1061046a57805160ff1916838001178555610498565b82800160010185558215610498579182015b8281111561049757825182559160200191906001019061047c565b5b5090506104a591906104a9565b5090565b5b808211156104c25760008160009055506001016104aa565b5090565b60006104d96104d484610790565b61076b565b9050828152602081018484840111156104f157600080fd5b6104fc848285610819565b509392505050565b60008135905061051381610956565b92915050565b600082601f83011261052a57600080fd5b813561053a8482602086016104c6565b91505092915050565b6000813590506105528161096d565b92915050565b600080600080600060a0868803121561057057600080fd5b600086013567ffffffffffffffff81111561058a57600080fd5b61059688828901610519565b95505060206105a788828901610543565b94505060406105b888828901610543565b93505060606105c988828901610504565b92505060806105da88828901610543565b9150509295509295909350565b6000602082840312156105f957600080fd5b600061060784828501610543565b91505092915050565b610619816107dd565b82525050565b600061062a826107c1565b61063481856107cc565b9350610644818560208601610828565b61064d8161091c565b840191505092915050565b6000610665601f836107cc565b91506106708261092d565b602082019050919050565b6106848161080f565b82525050565b600060608201905081810360008301526106a4818661061f565b90506106b3602083018561067b565b6106c0604083018461067b565b949350505050565b600060c08201905081810360008301526106e2818961061f565b90506106f1602083018861067b565b6106fe604083018761067b565b61070b6060830186610610565b6107186080830185610610565b61072560a083018461067b565b979650505050505050565b6000602082019050818103600083015261074981610658565b9050919050565b6000602082019050610765600083018461067b565b92915050565b6000610775610786565b9050610781828261088d565b919050565b6000604051905090565b600067ffffffffffffffff8211156107ab576107aa6108ed565b5b6107b48261091c565b9050602081019050919050565b600081519050919050565b600082825260208201905092915050565b60006107e8826107ef565b9050919050565b600073ffffffffffffffffffffffffffffffffffffffff82169050919050565b6000819050919050565b82818337600083830152505050565b60005b8381101561084657808201518184015260208101905061082b565b83811115610855576000848401525b50505050565b6000600282049050600182168061087357607f821691505b60208210811415610887576108866108be565b5b50919050565b6108968261091c565b810181811067ffffffffffffffff821117156108b5576108b46108ed565b5b80604052505050565b7f4e487b7100000000000000000000000000000000000000000000000000000000600052602260045260246000fd5b7f4e487b7100000000000000000000000000000000000000000000000000000000600052604160045260246000fd5b6000601f19601f8301169050919050565b7f5265656e7472616e637947756172643a207265656e7472616e742063616c6c00600082015250565b61095f816107dd565b811461096a57600080fd5b50565b6109768161080f565b811461098157600080fd5b5056fea2646970667358221220db0718481ae287fce6c1431f8246b7266437d1120564492fa79333d658b47a4364736f6c63430008040033",
  "linkReferences": {},
  "deployedLinkReferences": {}
}